{
  "contractName": "Payments",
  "abi": [
    {
      "inputs": [
        {
          "internalType": "uint256",
          "name": "_house",
          "type": "uint256"
        },
        {
          "internalType": "uint256",
          "name": "_player",
          "type": "uint256"
        }
      ],
      "stateMutability": "nonpayable",
      "type": "constructor"
    },
    {
      "inputs": [
        {
          "internalType": "uint256",
          "name": "_money",
          "type": "uint256"
        }
      ],
      "name": "addBet",
      "outputs": [],
      "stateMutability": "nonpayable",
      "type": "function"
    },
    {
      "inputs": [],
      "name": "zeroBet",
      "outputs": [],
      "stateMutability": "nonpayable",
      "type": "function"
    },
    {
      "inputs": [],
      "name": "getBet",
      "outputs": [
        {
          "internalType": "uint256",
          "name": "",
          "type": "uint256"
        }
      ],
      "stateMutability": "view",
      "type": "function"
    },
    {
      "inputs": [
        {
          "internalType": "uint256",
          "name": "_money",
          "type": "uint256"
        }
      ],
      "name": "addHouse",
      "outputs": [],
      "stateMutability": "nonpayable",
      "type": "function"
    },
    {
      "inputs": [
        {
          "internalType": "uint256",
          "name": "_money",
          "type": "uint256"
        }
      ],
      "name": "addPlayer",
      "outputs": [],
      "stateMutability": "nonpayable",
      "type": "function"
    },
    {
      "inputs": [
        {
          "internalType": "uint256",
          "name": "_money",
          "type": "uint256"
        }
      ],
      "name": "subHouse",
      "outputs": [],
      "stateMutability": "nonpayable",
      "type": "function"
    },
    {
      "inputs": [
        {
          "internalType": "uint256",
          "name": "_money",
          "type": "uint256"
        }
      ],
      "name": "subPlayer",
      "outputs": [],
      "stateMutability": "nonpayable",
      "type": "function"
    },
    {
      "inputs": [],
      "name": "getHouseBalance",
      "outputs": [
        {
          "internalType": "uint256",
          "name": "",
          "type": "uint256"
        }
      ],
      "stateMutability": "view",
      "type": "function"
    },
    {
      "inputs": [],
      "name": "getPlayerBalance",
      "outputs": [
        {
          "internalType": "uint256",
          "name": "",
          "type": "uint256"
        }
      ],
      "stateMutability": "view",
      "type": "function"
    }
  ],
  "bytecode": "0x608060405234801561001057600080fd5b506040516104793803806104798339818101604052810190610032919061005c565b816000819055508060018190555050506100b9565b600081519050610056816100a2565b92915050565b6000806040838503121561006f57600080fd5b600061007d85828601610047565b925050602061008e85828601610047565b9150509250929050565b6000819050919050565b6100ab81610098565b81146100b657600080fd5b50565b6103b1806100c86000396000f3fe608060405234801561001057600080fd5b50600436106100935760003560e01c8063cdaba78611610066578063cdaba7861461010e578063ec4a8b171461012a578063f49af50a14610146578063f732ece314610162578063fbf51bef1461017e57610093565b806305a8d569146100985780630b01517c146100b65780630c5dfa80146100d457806320835e8c146100f0575b600080fd5b6100a0610188565b6040516100ad9190610286565b60405180910390f35b6100be610191565b6040516100cb9190610286565b60405180910390f35b6100ee60048036038101906100e9919061024e565b61019b565b005b6100f86101b6565b6040516101059190610286565b60405180910390f35b6101286004803603810190610123919061024e565b6101c0565b005b610144600480360381019061013f919061024e565b6101dc565b005b610160600480360381019061015b919061024e565b6101f8565b005b61017c6004803603810190610177919061024e565b610214565b005b61018661022f565b005b60008054905090565b6000600154905090565b806000808282546101ac91906102f7565b9250508190555050565b6000600254905090565b80600260008282546101d291906102a1565b9250508190555050565b80600160008282546101ee91906102a1565b9250508190555050565b806001600082825461020a91906102f7565b9250508190555050565b8060008082825461022591906102a1565b9250508190555050565b6000600281905550565b60008135905061024881610364565b92915050565b60006020828403121561026057600080fd5b600061026e84828501610239565b91505092915050565b6102808161032b565b82525050565b600060208201905061029b6000830184610277565b92915050565b60006102ac8261032b565b91506102b78361032b565b9250827fffffffffffffffffffffffffffffffffffffffffffffffffffffffffffffffff038211156102ec576102eb610335565b5b828201905092915050565b60006103028261032b565b915061030d8361032b565b9250828210156103205761031f610335565b5b828203905092915050565b6000819050919050565b7f4e487b7100000000000000000000000000000000000000000000000000000000600052601160045260246000fd5b61036d8161032b565b811461037857600080fd5b5056fea2646970667358221220592ac7c9b6664b48d6b22c24c4efe3dd02bc15ee71a77b8e265b7e923c78270264736f6c63430008020033",
  "immutableReferences": {},
  "source": "// SPDX-License-Identifier: MIT\r\n// @Author: Bertan Berker\r\n// @File: payments.sol\r\n// This is a smart contract that handles the payments between the player and the house\r\n\r\npragma solidity ^0.8.2;\r\n\r\ncontract Payments {\r\n\r\n    uint256 house_balance;\r\n    uint256 player_balance;\r\n    uint256 player_bet;\r\n\r\n    constructor(uint256 _house, uint256 _player) {\r\n        house_balance = _house;\r\n        player_balance = _player;\r\n\r\n    }\r\n\r\n    function addBet(uint256 _money) public {\r\n        player_bet += _money;\r\n    }\r\n\r\n    function zeroBet() public {\r\n        player_bet = 0;\r\n    }\r\n\r\n    function getBet() public view returns (uint256) {\r\n        return player_bet;\r\n    }\r\n\r\n    function addHouse(uint256 _money) public {\r\n        house_balance += _money;\r\n    }\r\n\r\n    function addPlayer(uint256 _money) public {\r\n        player_balance += _money;\r\n    }\r\n\r\n    function subHouse(uint256 _money) public {\r\n        house_balance -= _money;\r\n    }\r\n\r\n    function subPlayer(uint256 _money) public {\r\n        player_balance -= _money;\r\n    }\r\n\r\n    function getHouseBalance() public view returns (uint256) {\r\n        return house_balance;\r\n    }\r\n\r\n    function getPlayerBalance() public view returns (uint256) {\r\n        return player_balance;\r\n    }\r\n\r\n}",
  "sourcePath": "C:\\Users\\berta\\Desktop\\Blackjack-Bot\\SmartContracts\\contracts\\Payments.sol",
  "compiler": {
    "name": "solc",
    "version": "0.8.2+commit.661d1103.Emscripten.clang"
  },
  "schemaVersion": "3.4.16",
  "updatedAt": "2024-06-19T07:22:38.645Z",
  "devdoc": {
    "kind": "dev",
    "methods": {},
    "version": 1
  },
  "userdoc": {
    "kind": "user",
    "methods": {},
    "version": 1
  }
}