{
  "contractName": "Payments",
  "abi": [
    {
      "inputs": [
        {
          "internalType": "uint256",
          "name": "_house",
          "type": "uint256"
        },
        {
          "internalType": "uint256",
          "name": "_player",
          "type": "uint256"
        }
      ],
      "stateMutability": "nonpayable",
      "type": "constructor"
    },
    {
      "inputs": [
        {
          "internalType": "uint256",
          "name": "_money",
          "type": "uint256"
        }
      ],
      "name": "addHouse",
      "outputs": [],
      "stateMutability": "nonpayable",
      "type": "function"
    },
    {
      "inputs": [
        {
          "internalType": "uint256",
          "name": "_money",
          "type": "uint256"
        }
      ],
      "name": "addPlayer",
      "outputs": [],
      "stateMutability": "nonpayable",
      "type": "function"
    },
    {
      "inputs": [
        {
          "internalType": "uint256",
          "name": "_money",
          "type": "uint256"
        }
      ],
      "name": "subHouse",
      "outputs": [],
      "stateMutability": "nonpayable",
      "type": "function"
    },
    {
      "inputs": [
        {
          "internalType": "uint256",
          "name": "_money",
          "type": "uint256"
        }
      ],
      "name": "subPlayer",
      "outputs": [],
      "stateMutability": "nonpayable",
      "type": "function"
    },
    {
      "inputs": [],
      "name": "getHouseBalance",
      "outputs": [
        {
          "internalType": "uint256",
          "name": "",
          "type": "uint256"
        }
      ],
      "stateMutability": "view",
      "type": "function"
    },
    {
      "inputs": [],
      "name": "getPlayerBalance",
      "outputs": [
        {
          "internalType": "uint256",
          "name": "",
          "type": "uint256"
        }
      ],
      "stateMutability": "view",
      "type": "function"
    }
  ],
  "bytecode": "0x608060405234801561000f575f80fd5b506040516103a53803806103a58339818101604052810190610031919061007c565b815f819055508060018190555050506100ba565b5f80fd5b5f819050919050565b61005b81610049565b8114610065575f80fd5b50565b5f8151905061007681610052565b92915050565b5f806040838503121561009257610091610045565b5b5f61009f85828601610068565b92505060206100b085828601610068565b9150509250929050565b6102de806100c75f395ff3fe608060405234801561000f575f80fd5b5060043610610060575f3560e01c806305a8d569146100645780630b01517c146100825780630c5dfa80146100a0578063ec4a8b17146100bc578063f49af50a146100d8578063f732ece3146100f4575b5f80fd5b61006c610110565b60405161007991906101a3565b60405180910390f35b61008a610118565b60405161009791906101a3565b60405180910390f35b6100ba60048036038101906100b591906101ea565b610121565b005b6100d660048036038101906100d191906101ea565b61013b565b005b6100f260048036038101906100ed91906101ea565b610156565b005b61010e600480360381019061010991906101ea565b610171565b005b5f8054905090565b5f600154905090565b805f808282546101319190610242565b9250508190555050565b8060015f82825461014c9190610275565b9250508190555050565b8060015f8282546101679190610275565b9250508190555050565b805f808282546101819190610275565b9250508190555050565b5f819050919050565b61019d8161018b565b82525050565b5f6020820190506101b65f830184610194565b92915050565b5f80fd5b6101c98161018b565b81146101d3575f80fd5b50565b5f813590506101e4816101c0565b92915050565b5f602082840312156101ff576101fe6101bc565b5b5f61020c848285016101d6565b91505092915050565b7f4e487b71000000000000000000000000000000000000000000000000000000005f52601160045260245ffd5b5f61024c8261018b565b91506102578361018b565b925082820390508181111561026f5761026e610215565b5b92915050565b5f61027f8261018b565b915061028a8361018b565b92508282019050808211156102a2576102a1610215565b5b9291505056fea264697066735822122043c47d205c83631302cad41efa75c83e444d8da93765007f3c9802f9312c626f64736f6c63430008150033",
  "immutableReferences": {},
  "source": "// SPDX-License-Identifier: MIT\r\n// @Author: Bertan Berker\r\n// @File: payments.sol\r\n// This is a smart contract that handles the payments between the player and the house\r\n\r\npragma solidity ^0.8.2;\r\n\r\n\r\ncontract Payments {\r\n\r\n    uint256 house_balance;\r\n    uint256 player_balance;\r\n\r\n    constructor(uint256 _house, uint256 _player) {\r\n        house_balance = _house;\r\n        player_balance = _player;\r\n\r\n    }\r\n\r\n    function addHouse(uint256 _money) public {\r\n        house_balance += _money;\r\n    }\r\n\r\n    function addPlayer(uint256 _money) public {\r\n        player_balance += _money;\r\n    }\r\n\r\n    function subHouse(uint256 _money) public {\r\n        house_balance -= _money;\r\n    }\r\n\r\n    function subPlayer(uint256 _money) public {\r\n        player_balance += _money;\r\n    }\r\n\r\n    function getHouseBalance() public view returns (uint256) {\r\n        return house_balance;\r\n    }\r\n\r\n    function getPlayerBalance() public view returns (uint256) {\r\n        return player_balance;\r\n    }\r\n\r\n}",
  "sourcePath": "C:\\Users\\berta\\Desktop\\Blackjack-Bot\\SmartContracts\\contracts\\payments.sol",
  "compiler": {
    "name": "solc",
    "version": "0.8.21+commit.d9974bed.Emscripten.clang"
  },
  "schemaVersion": "3.4.16",
  "updatedAt": "2024-06-18T13:57:20.135Z",
  "devdoc": {
    "kind": "dev",
    "methods": {},
    "version": 1
  },
  "userdoc": {
    "kind": "user",
    "methods": {},
    "version": 1
  }
}