{
  "contractName": "Payments",
  "abi": [
    {
      "inputs": [
        {
          "internalType": "uint256",
          "name": "_house",
          "type": "uint256"
        },
        {
          "internalType": "uint256",
          "name": "_player",
          "type": "uint256"
        }
      ],
      "stateMutability": "nonpayable",
      "type": "constructor"
    },
    {
      "inputs": [
        {
          "internalType": "uint256",
          "name": "_money",
          "type": "uint256"
        }
      ],
      "name": "addHouse",
      "outputs": [],
      "stateMutability": "nonpayable",
      "type": "function"
    },
    {
      "inputs": [
        {
          "internalType": "uint256",
          "name": "_money",
          "type": "uint256"
        }
      ],
      "name": "addPlayer",
      "outputs": [],
      "stateMutability": "nonpayable",
      "type": "function"
    },
    {
      "inputs": [
        {
          "internalType": "uint256",
          "name": "_money",
          "type": "uint256"
        }
      ],
      "name": "subHouse",
      "outputs": [],
      "stateMutability": "nonpayable",
      "type": "function"
    },
    {
      "inputs": [
        {
          "internalType": "uint256",
          "name": "_money",
          "type": "uint256"
        }
      ],
      "name": "subPlayer",
      "outputs": [],
      "stateMutability": "nonpayable",
      "type": "function"
    },
    {
      "inputs": [],
      "name": "getHouseBalance",
      "outputs": [
        {
          "internalType": "uint256",
          "name": "",
          "type": "uint256"
        }
      ],
      "stateMutability": "view",
      "type": "function"
    },
    {
      "inputs": [],
      "name": "getPlayerBalance",
      "outputs": [
        {
          "internalType": "uint256",
          "name": "",
          "type": "uint256"
        }
      ],
      "stateMutability": "view",
      "type": "function"
    }
  ],
  "bytecode": "0x608060405234801561001057600080fd5b506040516103d43803806103d48339818101604052810190610032919061005c565b816000819055508060018190555050506100b9565b600081519050610056816100a2565b92915050565b6000806040838503121561006f57600080fd5b600061007d85828601610047565b925050602061008e85828601610047565b9150509250929050565b6000819050919050565b6100ab81610098565b81146100b657600080fd5b50565b61030c806100c86000396000f3fe608060405234801561001057600080fd5b50600436106100625760003560e01c806305a8d569146100675780630b01517c146100855780630c5dfa80146100a3578063ec4a8b17146100bf578063f49af50a146100db578063f732ece3146100f7575b600080fd5b61006f610113565b60405161007c91906101e1565b60405180910390f35b61008d61011c565b60405161009a91906101e1565b60405180910390f35b6100bd60048036038101906100b891906101a9565b610126565b005b6100d960048036038101906100d491906101a9565b610141565b005b6100f560048036038101906100f091906101a9565b61015d565b005b610111600480360381019061010c91906101a9565b610179565b005b60008054905090565b6000600154905090565b806000808282546101379190610252565b9250508190555050565b806001600082825461015391906101fc565b9250508190555050565b806001600082825461016f9190610252565b9250508190555050565b8060008082825461018a91906101fc565b9250508190555050565b6000813590506101a3816102bf565b92915050565b6000602082840312156101bb57600080fd5b60006101c984828501610194565b91505092915050565b6101db81610286565b82525050565b60006020820190506101f660008301846101d2565b92915050565b600061020782610286565b915061021283610286565b9250827fffffffffffffffffffffffffffffffffffffffffffffffffffffffffffffffff0382111561024757610246610290565b5b828201905092915050565b600061025d82610286565b915061026883610286565b92508282101561027b5761027a610290565b5b828203905092915050565b6000819050919050565b7f4e487b7100000000000000000000000000000000000000000000000000000000600052601160045260246000fd5b6102c881610286565b81146102d357600080fd5b5056fea264697066735822122091e64d052a1cc39c113e738c497efd3ef46a3075d52e4c4a728e08e72507c42264736f6c63430008020033",
  "immutableReferences": {},
  "source": "// SPDX-License-Identifier: MIT\r\n// @Author: Bertan Berker\r\n// @File: payments.sol\r\n// This is a smart contract that handles the payments between the player and the house\r\n\r\npragma solidity ^0.8.2;\r\n\r\ncontract Payments {\r\n\r\n    uint256 house_balance;\r\n    uint256 player_balance;\r\n\r\n    constructor(uint256 _house, uint256 _player) {\r\n        house_balance = _house;\r\n        player_balance = _player;\r\n\r\n    }\r\n\r\n    function addHouse(uint256 _money) public {\r\n        house_balance += _money;\r\n    }\r\n\r\n    function addPlayer(uint256 _money) public {\r\n        player_balance += _money;\r\n    }\r\n\r\n    function subHouse(uint256 _money) public {\r\n        house_balance -= _money;\r\n    }\r\n\r\n    function subPlayer(uint256 _money) public {\r\n        player_balance -= _money;\r\n    }\r\n\r\n    function getHouseBalance() public view returns (uint256) {\r\n        return house_balance;\r\n    }\r\n\r\n    function getPlayerBalance() public view returns (uint256) {\r\n        return player_balance;\r\n    }\r\n\r\n}",
  "sourcePath": "C:\\Users\\berta\\Desktop\\Blackjack-Bot\\SmartContracts\\contracts\\Payments.sol",
  "compiler": {
    "name": "solc",
    "version": "0.8.2+commit.661d1103.Emscripten.clang"
  },
  "schemaVersion": "3.4.16",
  "updatedAt": "2024-06-18T14:34:23.250Z",
  "devdoc": {
    "kind": "dev",
    "methods": {},
    "version": 1
  },
  "userdoc": {
    "kind": "user",
    "methods": {},
    "version": 1
  }
}